:020000040800F2
:1000000050100020B10F0008F10F0008F30F000896
:10001000F70F0008FB0F0008FF0F000800000000AA
:1000200000000000000000000000000003100008B5
:100030000510000800000000071000080910000863
:10004000CB0F0008CB0F0008CB0F0008CB0F000828
:10005000CB0F0008CB0F0008CB0F0008CB0F000818
:10006000CB0F0008CB0F0008CB0F0008CB0F000808
:10007000CB0F0008CB0F0008CB0F0008CB0F0008F8
:10008000CB0F0008CB0F0008CB0F0008CB0F0008E8
:10009000CB0F0008CB0F0008CB0F0008CB0F0008D8
:1000A000CB0F0008CB0F0008CB0F0008CB0F0008C8
:1000B000CB0F0008CB0F0008CB0F0008CB0F0008B8
:1000C000CB0F0008CB0F0008CB0F0008CB0F0008A8
:1000D000CB0F000883120008CB0F0008CB0F0008DD
:1000E000CB0F0008CB0F0008CB0F000800F002F880
:1000F00000F06DF80AA090E8000C82448344AAF155
:100100000107DA4501D100F062F8AFF2090EBAE852
:100110000F0013F0010F18BFFB1A43F0010318473B
:10012000B0430000D04300000A444FF0000C10F828
:10013000013B13F0070408BF10F8014B1D1108BF65
:1001400010F8015B641E05D010F8016B641E01F805
:10015000016BF9D113F0080F1EBF10F8014BAD1C55
:100160000C1B09D16D1E58BF01F801CBFAD505E073
:1001700014F8016B01F8016B6D1EF9D59142D6D3CD
:10018000704700000023002400250026103A28BFF5
:1001900078C1FBD8520728BF30C148BF0B607047F9
:1001A000662904F0E880642902F0D285782902F0FB
:1001B0000986002070471FB503F00EF904000020E7
:1001C000002103F043FEE0601FBD10B510BD03F039
:1001D00001FA1146FFF7EFFF00F056FF03F01FFA98
:1001E00003B4FFF7F2FF03BC00F0EEFF0CB50020F4
:1001F000019000906C48006840F480306A490860C3
:1002000000BF6948006800F4003000900198401C6D
:100210000190009818B90198B0F5A06FF1D162482B
:10022000006800F4003010B10120009001E00020CF
:1002300000900098012843D15C48006840F010000D
:100240005A4908600846006820F003000860084624
:10025000006840F002000860534840685249486016
:100260000846406848600846406840F4806048603E
:100270000846406820F47C1048600846406840F416
:10028000E81048600846006840F08070086000BFD1
:100290004548006800F000700028F9D042484068E6
:1002A00020F00300404948600846406840F00200E2
:1002B000486000BF3C48406800F00C000828F9D1B5
:1002C0000CBD10B5FFF792FF10BD10B536480068A1
:1002D00040F001003449086008464068344908404D
:1002E0003149486008460068324908402E49086094
:1002F0000846006820F4802008600846406820F422
:10030000FE0048604FF41F008860FFF7DAFF4FF0EF
:1003100000602949086010BD10B5002100200022AE
:10032000214B5B6803F00C0121B1042906D0082998
:1003300028D107E0214B224C236027E01F4B204CA3
:10034000236023E0184B5B6803F47010164B5B6866
:1003500003F48032022303EB904022B9194B43434C
:10036000174C23600DE0104B5B6803F4003323B19E
:10037000144B4343124C236003E0104B4343104C97
:10038000236003E00D4B0E4C236000BF00BF064B03
:100390005B68C3F303130C4CE15C094B1B68CB4057
:1003A000074C236010BD00000010024000200240F6
:1003B0000000FFF8FFFFF6FE08ED00E000127A00F3
:1003C0000000002000093D000400002031490143E5
:1003D000314A1160704770B5002100230F22C478A4
:1003E00004B32D4C246804F4E064C4F5E064210AED
:1003F000C1F10403CA40447804FA03F1847814403C
:1004000021430901254C0678A155047804F01F0505
:100410000124AC4005786D11AD0005F1E025C5F86B
:10042000004109E0047804F01F050124AC401C4D94
:100430000678761145F8264070BD1A4A0A400243F4
:10044000154B1B1F1A60704739B1134A121D1268F1
:100450000243114B1B1D1A6006E00F4A121D126861
:1004600082430D4B1B1D1A607047042808D14FF0C2
:10047000E021096941F004014FF0E022116107E039
:100480004FF0E021096921F004014FF0E0221161F1
:10049000704700000000FA050CED00E000E400E009
:1004A00080E100E080FFFF1FDF48006840F00100AE
:1004B000DD49086008464068DC490840DA49486080
:1004C00008460068DA490840D749086008460068CD
:1004D00020F4802008600846406820F4FE00486050
:1004E0004FF41F0088607047CF49096821F48031BC
:1004F000CD4A11601146096821F480211160B0F5E0
:10050000803F03D0B0F5802F0ED106E0C6490968C0
:1005100041F48031C44A116007E0C349096841F4DD
:10052000A021C14A116000E000BF00BF704710B5B4
:1005300001460022002300204A11012A02D1BA4CB0
:10054000236806E0022A02D1B74C236A01E0B64CC8
:10055000636A01F01F02012494401C400CB1012089
:1005600000E0002010BD38B50020009000240025D8
:1005700000BF3120FFF7DBFF05460098401C0090CC
:100580000098B0F5A06F01D0002DF2D03120FFF718
:10059000CEFF08B1012400E00024204638BD01460A
:1005A0000020A14A106820F0F80040EAC100106065
:1005B0007047A04908607047024600209A4B58686F
:1005C00020F47C1042EA01031843974B58607047AF
:1005D00098490866704701460020934A506820F009
:1005E00003000843506070478F48406800F00C00DB
:1005F0007047014600208C4A506820F0F000084304
:100600005060704701460020874A506820F4E0603F
:1006100008435060704701460020834A506820F428
:10062000605040EAC1005060704729B17E4A527A5A
:1006300002437D4B5A7204E07B4A527A82437A4BE2
:100640005A7270477B49D8310860704701460020D4
:10065000754A506820F440400843506070470021BC
:10066000714A20321170704A82F82010012802D09D
:1006700004280AD104E001216B4A2032117005E000
:100680000521694A2032117000E000BF00BF7047A9
:100690006949086070476449096A0143624A116206
:1006A0007047654944390860704730B50021002221
:1006B000002400235C4D6D6805F00C0121B1042974
:1006C00005D0082923D105E05C4D056022E05B4D93
:1006D00005601FE0544D6D6805F47012524D6D6851
:1006E00005F48034022505EB92421CB9544D554364
:1006F00005600BE04C4D6D6805F400351DB1504DA3
:100700005543056002E04D4D5543056002E04B4DF9
:10071000056000BF00BF444D6D6805F0F001090998
:10072000484D6B5C0568DD4045603F4D6D6805F4E4
:10073000E061090A434D6B5C4568DD4085603A4DD8
:100740006D6805F46051C90A3E4D6B5C4568DD403B
:10075000C560354D6D6805F44041890B3A4D6B5CC1
:10076000C568B5FBF3F5056130BD29B12E4A526964
:1007700002432D4B5A6104E02B4A526982432A4BB3
:100780005A61704729B1284A92690243264B9A61FF
:1007900004E0254A92698243234B9A61704729B14C
:1007A000214AD2690243204BDA6104E01E4AD26931
:1007B00082431D4BDA61704729B11B4AD26802435C
:1007C000194BDA6004E0184AD2688243164BDA60AB
:1007D000704729B1144A12690243134B1A6104E0AD
:1007E000114A12698243104B1A617047124940390D
:1007F000086070470F49C86470470B49C87170475B
:100800000948406A40F080700749486270470146D5
:100810000020054A92680A400AB1012000E0002049
:100820007047014988727047001002400000FFF8CD
:10083000FFFFF6FE000042428004424200127A00AE
:1008400000093D00140000202400002010B50446DB
:10085000CC48844208D101210420FFF7ADFF0021DC
:100860000420FFF7A9FF46E0C748844208D10121D0
:100870000820FFF7A1FF00210820FFF79DFF3AE0C5
:10088000C248844208D101211020FFF795FF0021C2
:100890001020FFF791FF2EE0BD48844208D10121CE
:1008A0002020FFF789FF00212020FFF785FF22E0AD
:1008B000B848844208D101214020FFF77DFF002184
:1008C0004020FFF779FF16E0B348844208D10121A8
:1008D0008020FFF771FF00218020FFF76DFF0AE005
:1008E000AE48844207D101218015FFF765FF002142
:1008F000A015FFF761FF10BD10B501210846FFF7F5
:100900005BFF00210120FFF757FF10BD2DE9F041EB
:10091000024600250026002000230024002791F82D
:1009200003C00CF00F0591F803C00CF0100CBCF1E3
:10093000000F03D091F802C04CEA050591F800C001
:10094000BCF1000F31D0146800202BE04FF0010CF7
:100950000CFA00F3B1F800C00CEA03069E4220D165
:1009600083004FF00F0C0CFA03F7BC4305FA03FCAD
:100970004CEA040491F803C0BCF1280F06D14FF0F3
:10098000010C0CFA00FCC2F814C00AE091F803C094
:10099000BCF1480F05D14FF0010C0CFA00FCC2F875
:1009A00010C0401C0828D1D31460B1F800C0BCF1BD
:1009B000FF0F34DD546800202EE000F1080C4FF0EA
:1009C000010808FA0CF3B1F800C00CEA03069E42D5
:1009D00021D183004FF00F0C0CFA03F7BC4305FA4A
:1009E00003FC4CEA040491F803C0BCF1280F05D1C4
:1009F00000F1080C08FA0CF8C2F8148091F803C052
:100A0000BCF1480F07D100F1080C4FF0010808FABB
:100A10000CF8C2F81080401C0828CED35460BDE802
:100A2000F0814FF6FF710180022181700421C170B5
:100A300070470246002093680B400BB1012000E094
:100A4000002070470146886880B270470246002047
:100A5000D3680B400BB1012000E000207047014635
:100A6000C86880B2704701617047416170470AB140
:100A7000016100E041617047C16070474FF480320E
:100A80000A4382618161826182698269704702469C
:100A90000020434B18684FF68073184040EA02105C
:100AA00008433F4B186070473E49C8617047F0B536
:100AB0000A46002300240021002500F00046B6F17C
:100AC000004F02D1364EF16901E0354E7168C0F336
:100AD000034583B200F44016B6F5401F08D121F05B
:100AE00070612F4E766826F070662D4F7E6012E0A2
:100AF00000F48016B6F5801F06D1032606FA05F429
:100B0000A14341F0706106E0460D360103FA06F696
:100B1000B14341F0706122B1460D360103FA06F689
:100B2000314300F00046B6F1004F02D11C4EF16196
:100B300001E01B4E7160F0BD30B500228B071C0F29
:100B40000F2303FA04F2164B08338C1053F82430A9
:100B50009343134C08348D1044F8253023468C10F1
:100B600053F824308C07240F00FA04F423430C4C70
:100B700008348D1044F8253030BD0A49DC31086056
:100B80007047000000080140000C014000100140C7
:100B90000014014000180140001C014000200140E9
:100BA000000001400000204210B50446FB4884428A
:100BB00009D101218803FFF7FFFD00214FF4804098
:100BC000FFF7FAFD32E0F648844209D101214804DA
:100BD000FFF7FFFD00214FF40030FFF7FAFD25E09D
:100BE000F048844209D101218804FFF7F2FD002179
:100BF0004FF48020FFF7EDFD18E0EB48844209D167
:100C00000121C804FFF7E5FD00214FF40020FFF7A4
:100C1000E0FD0BE0E548844208D101210805FFF71B
:100C2000D8FD00214FF48010FFF7D3FD10BD2DE952
:100C3000F04786B005460E460024A24600BFA146F6
:100C40000027B08900B100BF2F462C8A4CF6FF70F8
:100C50000440F08804432C82AC894EF6F310044023
:100C6000B08831890843718908430443AC81AC8A58
:100C70004FF6FF400440B0890443AC8201A8FFF75F
:100C800014FDC648874202D1DDF810A001E0DDF86E
:100C90000CA0A88900F4004040B10AEBCA0000EBA8
:100CA0000A1031684900B0FBF1F807E00AEBCA000E
:100CB00000EB0A1031688900B0FBF1F86420B8FB42
:100CC000F0F004012009642101FB1089A88900F4D7
:100CD000004040B1322000EBC900B0FBF1F000F061
:100CE0000700044308E0322000EB09106421B0FB48
:100CF000F1F000F00F0004432C8106B0BDE8F0874E
:100D00004FF41651016000218180C18001810C21C6
:100D1000418100218181704710B502460020108A70
:100D20004FF2FF0318400B884C8823438C882343E1
:100D3000CC8823431843108210BD002101804180DC
:100D40008180C180704721B1828942F40052828142
:100D500004E082894DF6FF731A4082817047F0B536
:100D60000346002400260025002040F66A17B942F9
:100D700000D100BF1846C1F3421401F01F0601273D
:100D800007FA06F5012C01D10C3004E0022C01D148
:100D9000103000E014301AB107682F43076002E0FA
:100DA0000768AF430760F0BD1AB1838A0B438382A3
:100DB00002E0838A8B4383827047028A4FF6F07386
:100DC0001A400282028A0A430282704782894FF2E5
:100DD000FF731A40828182890A438281704721B160
:100DE000828942F00202828104E082894FF6FD731B
:100DF0001A4082817047028A4FF6DF731A400282DE
:100E0000028A0A430282704721B1028A42F4804278
:100E1000028204E0028A4BF6FF731A400282704796
:100E2000C1F308028280704701468888C0F3080039
:100E30007047818941F0010181817047028BD2B2F4
:100E40000283028B42EA012202837047028B02F482
:100E50007F420283028B0A430283704721B1828A58
:100E600042F02002828204E0828A4FF6DF731A4049
:100E70008282704721B1828A42F01002828204E0AD
:100E8000828A4FF6EF731A408282704721B1828ABC
:100E900042F00802828204E0828A4FF6F7731A4019
:100EA0008282704721B1828942F40042828103E04C
:100EB0008289C2F30E028281704721B1828A42F494
:100EC0000062828204E0828A4FF2FF731A408282BB
:100ED0007047828A4FF6FB731A408282828A0A43E5
:100EE0008282704721B1828A42F00202828204E04B
:100EF000828A4FF6FD731A408282704702460020B4
:100F0000B1F5007F00D100BF13880B400BB1012069
:100F100000E00020704701F40072B2F5007F00D1BC
:100F200000BFCA430280704770B502460024002308
:100F30000025002040F66A16B14200D100BFC1F37F
:100F4000421501F01F03012606FA03F3012D02D119
:100F50009689334006E0022D02D1168A334001E023
:100F6000968A33400C12012606FA04F4168834409F
:100F700013B10CB1012000E0002070BD10B50022BB
:100F8000002340F66A14A14200D100BF0A120124D6
:100F90009440A3B2DC43048010BD0000003801403F
:100FA0000044004000480040004C00400050004019
:100FB0000948804709480047FEE7FEE7FEE7FEE7ED
:100FC000FEE7FEE7FEE7FEE7FEE7FEE70448054929
:100FD000054A064B70470000CB020008ED000008F0
:100FE000500A002050100020500C0020500C00200F
:100FF000704700BFFEE700BFFEE700BFFEE700BF8F
:10100000FEE77047704770477047000010B5012138
:101010000820FFF7B7FB01210420FFF7B3FB0121F4
:101020000846FFF7AFFB01212F48FFF740FD10BD39
:1010300010B5FFF739FA4FF48030FFF755FAFFF794
:1010400092FA0446012C1ED10020FFF7D2FA0020AC
:10105000FFF7E1FAA002FFF7D5FA4FF4E011200400
:10106000FFF7AAFA0120FFF7B3FA00BF3920FFF714
:101070005EFA0028FAD00220FFF7ADFA00BFFFF7B2
:10108000B3FA0828FBD110BDFFF7D2FFFFF7BEFF70
:1010900000F036F84FF4165000F0A4F813A001F059
:1010A00003FE01F0B3FA01F0DBFC01F0EFFC00F00D
:1010B00095FD4FF47A7000F05BF84FF47A7000F011
:1010C00033F800F06FFD0C480C49086008460068D2
:1010D00000F098FE07E000F0A3FD0446FF2C02D0CC
:1010E000204600F0AEFEF6E7000430007561727431
:1010F0005F696E6974210000BC070020B4070020FE
:1011000010B56FF00400FFF7B0F92B4800682B49C9
:10111000B0FBF1F02A490870084600784FF47A7164
:1011200048432849086010BD0146254A12784A43C1
:101130004FF0E0235A6100229A611A46126942F088
:1011400001021A6100BF4FF0E022106900F00102B5
:101150001AB100F48032002AF5D04FF0E022126973
:1011600022F001024FF0E0231A6100229A617047D9
:101170000146144A12684A434FF0E0235A610022A4
:101180009A611A46126942F001021A6100BF4FF0DB
:10119000E022106900F001021AB100F48032002A46
:1011A000F5D04FF0E022126922F001024FF0E02367
:1011B0001A6100229A6170470000002000127A0034
:1011C000280000202C00002000BF704700BF4B4AC1
:1011D000128802F04002002AF9D0C2B2474B1B1D10
:1011E0001A80704710B586B00446012144F204000D
:1011F000FFF7C8FA4148FFF7D7FC4FF40070ADF88D
:10120000140003208DF8160018208DF8170005A98A
:101210003B48FFF77BFB4FF48060ADF814000420DF
:101220008DF8170005A93648FFF770FB25208DF8CB
:10123000000003208DF801008DF8020001208DF8D8
:1012400003006846FFF7C7F801940020ADF80800D6
:10125000ADF80A00ADF80C00ADF810000C20ADF8A8
:101260000E0001A92548FFF7E2FC012240F22551BA
:101270002248FFF774FD01212048FFF764FD06B006
:1012800010BD10B540F225511C48FFF74DFE10B3BC
:101290001A48FFF7C9FDC4B21A48008800F400409C
:1012A000C8B91848008800F4804060B10A2C03D007
:1012B00000201449088020E01248008840F40040D3
:1012C0001049088019E00D2C06D10E48008840F422
:1012D00080400C49088010E00A480088C0F30D00E7
:1012E00009490C5407480088401C064908800846F4
:1012F0000088C72801DD0020088010BD00380140AB
:101300000008014034000020C008002008B54FF458
:101310001060ADF8000003208DF8020010208DF859
:10132000030001210420FFF72DFA6946B648FFF7B4
:10133000EDFA01210820FFF725FA4FF60770ADF806
:1013400000006946B148FFF7E1FA08BD0CE04FF430
:101350007A7106E04FF47A7200E0521E002AFCD146
:10136000491E0029F6D1401E0028F0D1704770B503
:101370000546A648FFF773FB0446E4B244EA052499
:101380002146A248FFF778FB70BD10B50446002245
:101390004FF480719C48FFF76AFB012204219B48AF
:1013A000FFF765FB002202219848FFF760FB00224F
:1013B00001219648FFF75BFB0520FFF7D9FE204689
:1013C000FFF7D5FF0520FFF7D3FE012211468F4816
:1013D000FFF74DFB10BD10B5044600224FF480719D
:1013E0008948FFF744FB012204218848FFF73FFBAF
:1013F000012202218548FFF73AFB002201218348A0
:10140000FFF735FB0520FFF7B3FE2046FFF7AFFFE0
:101410000520FFF7ADFE012211467C48FFF727FBB0
:1014200010BD10B500224FF400617748FFF71FFB95
:101430004FF4FA70FFF79CFE00224FF4807172485F
:10144000FFF715FB0122D1026F48FFF710FBE220E6
:10145000FFF79BFF0A20FFF78BFEA120FFF795FF08
:10146000C820FFF792FFA620FFF78FFFA420FFF709
:101470008CFFA220FFF789FFF820FFF786FF0120ED
:10148000FFF783FF8120FFF780FF2320FFF77DFF19
:101490002520FFF77AFF2F20FFF777FF3220FFF795
:1014A00067FE4020FFF771FFAF20FFF76EFF32208D
:1014B000FFF75EFE10BD70B5002415E004F1B00129
:1014C000C8B2FFF762FF1020FFF75FFF0420FFF7AD
:1014D0005CFF002504E00020FFF77DFF681CC5B21B
:1014E000802DF8DB601CC4B2082CE7DB70BD70B542
:1014F0000446254615E005F1B001C8B2FFF745FFE7
:101500001020FFF742FF0420FFF73FFF002604E012
:101510000020FFF760FF701CC6B2802EF8DB681C4D
:10152000C5B2A01C8542E6DB70BD2DE9F04704463C
:101530000D461646601C0001C0F18000C4B2072DA4
:1015400002DD0020BDE8F087802C01DD0020F9E7F6
:1015500005F1B000C5B22846FFF717FF4EE0284658
:10156000FFF713FF4FEA141904F00F0A09F11001F5
:10157000C8B2FFF70AFF0AF10400FFF706FF0027D1
:1015800039E007EB0710224911F810003178884242
:1015900030D107EB07101E4901EB4000407871780D
:1015A000884227D14FF000081EE0B8F1100F0DD18E
:1015B000691CC8B2FFF7E9FE09F11001C8B2FFF7D4
:1015C000E4FE0AF10401C8B2FFF7DFFE07EB0711E2
:1015D0000F4A02EB4101891C11F80800FFF7FBFEDE
:1015E00008F1010000F0FF08B8F1200FDDDBA4F1E5
:1015F0001000C4B27F1C642FC3D3B61C30780028FF
:10160000ADD101209EE7000000080140000C014020
:10161000360000200BE0042106E04FF4CD7200E01C
:10162000521E002AFCD1491E0029F6D1401E002876
:10163000F1D1704770B5044600222021FE48FFF723
:1016400016FA00220121FC48FFF711FA002280213E
:10165000F948FFF70CFA00251BE000220121F648AB
:10166000FFF705FA04F0800028B101220221F248B8
:10167000FFF7FDF904E000220221EF48FFF7F7F938
:101680006006040E01221146EB48FFF7F0F9681CD2
:10169000C5B2082DE1DB01228021E748FFF7E7F919
:1016A00070BD70B5044601222021E348FFF7DFF941
:1016B00000220121E048FFF7DAF900228021DE480C
:1016C000FFF7D5F900251BE000220121DA48FFF7DA
:1016D000CEF904F0800028B101220221D648FFF79C
:1016E000C6F904E000220221D348FFF7C0F96006E2
:1016F000040E01221146D048FFF7B9F9681CC5B2A3
:10170000082DE1DB01228021CB48FFF7B0F970BD45
:1017100010B504462046FFF78DFF10BD10B50446F6
:101720002046FFF7BEFF10BD10B5C44C2478A04280
:1017300001DAC24C2070C24C2478A24201DDC04CB8
:101740002270C04C2478A14201DABE4C2170BE4CFC
:101750002478A34201DDBC4C237010BD08B50121E3
:101760000820FFF70FF8E320ADF8000003208DF804
:10177000020010208DF803006946AF48FFF7C6F855
:1017800008BD10B5FFF7EAFF00228021AA48FFF745
:101790006EF900224021A848FFF769F94FF4FA706A
:1017A000FFF738FF01224021A348FFF760F9A3208B
:1017B000FFF7AEFFA020FFF7ABFFC020FFF7A8FFA9
:1017C0004020FFF7A5FFB020FFF7A2FF0020FFF7A2
:1017D0009FFF1020FFF79CFF2C20FFF799FF32207E
:1017E000FFF718FF2E20FFF793FF6420FFF712FF8B
:1017F0002F20FFF78DFF0A20FFF70CFF2520FFF7B2
:1018000087FF3F237F2200210846FFF78DFF10BD91
:1018100010B504468120FFF77BFF04F03F00FFF77F
:1018200077FF10BD10B50446FFF7ABFFAF20FFF701
:101830006FFFA420FFF76CFF2046FFF7E9FF10BD04
:1018400070B5002517E045F0B000FFF761FF0024F8
:101850000DE004F00F00FFF75BFF102141EA1410C8
:10186000FFF756FFFF20FFF759FF601CC4B2812C21
:10187000EFDB681CC5B2082DE5DB70BD70B5002537
:1018800017E045F0B000FFF743FF00240DE004F03F
:101890000F00FFF73DFF102141EA1410FFF738FF5A
:1018A0000020FFF73BFF601CC4B2802CEFDB681CFC
:1018B000C5B2082DE5DB70BD70B505462E4617E0B4
:1018C00046F0B000FFF724FF00240DE004F00F0005
:1018D000FFF71EFF102141EA1410FFF719FF002047
:1018E000FFF71CFF601CC4B2802CEFDB701CC6B27B
:1018F000A81C8642E4DB70BD2DE9F05F8046894676
:10190000154608F10100C000C0F18000C4B2CA460B
:101910003FE04AF0B000FFF7FBFE04F00F00FFF7D6
:10192000F7FE102141EA1410FFF7F2FE2F783A2F4C
:1019300002D14FF00B0B08E02E2F02D14FF00A0B13
:1019400003E0A7F1300000F0FF0B00261BE0082E9B
:101950000FD10AF10101C9B241F0B000FFF7D8FE82
:1019600004F00F00FFF7D4FE102141EA1410FFF736
:10197000CFFE0BEB0B11354A1144491C885DFFF774
:10198000CDFE701CC6B2102EE1DBA4F10800C4B27B
:101990006D1C28780028BCD10120BDE8F09F2DE9FE
:1019A000F04780468946154608F10100C000C0F1A5
:1019B0008000C4B24FEA49604FEA106A4BE04AF037
:1019C000B000FFF7A5FE04F00F00FFF7A1FE102105
:1019D00041EA1410FFF79CFE00272AE007EB0710EE
:1019E0001B49085C2978884222D100261BE0082E7A
:1019F0000FD10AF10101C9B241F0B000FFF788FE32
:101A000004F00F00FFF784FE102141EA1410FFF7E5
:101A10007FFE07EB07110E4A1144491C885DFFF752
:101A20007DFE701CC6B2102EE1DBA4F10800C4B22A
:101A30007F1C642FD2D30DE0000C0140AE070020C4
:101A4000AF070020B0070020B107002028050020C4
:101A5000F40500206D1C28780028B0D10120BDE8D5
:101A6000F0872DE9F04780468946144608F10100C9
:101A70000001C0F18000C5B2CA4648E04AF0B0009B
:101A8000FFF746FE05F00F00FFF742FE102141EA86
:101A90001510FFF73DFE002636E006EB06104A491A
:101AA00011F81000217888422CD106EB0610464927
:101AB00001EB400040786178884223D100271CE088
:101AC000102F0FD10AF10101C9B241F0B000FFF7A8
:101AD0001FFE05F00F00FFF71BFE102141EA151055
:101AE000FFF716FE06EB0611374A02EB4101891C8F
:101AF000C85DFFF713FE781CC7B2202FE0DBA5F10D
:101B00001000C5B2701CC6B2642EC6DBA41C2078BF
:101B10000028B3D10120BDE8F0872DE9F04389B05A
:101B2000074688461646781C0001C0F18000C4B202
:101B300008F1010000F0FF092EE049F0B000FFF7C6
:101B4000E7FD04F00F00FFF7E3FD102141EA141058
:101B5000FFF7DEFD002519E0102D0FD1A9F10101DD
:101B6000C9B241F0B000FFF7D3FD04F00F00FFF75A
:101B7000CFFD102141EA1410FFF7CAFDC5F11F0186
:101B800001AA505CFFF7CAFD681CC5B2202DE3DB3B
:101B9000A4F11000C4B2B61C30780028CDD109B031
:101BA000BDE8F08310B50020FFF73CFEFFF766FEAE
:101BB00006A200210846FFF754FF04A204210020DA
:101BC000FFF74FFF10BD000036000020CDF8C1AA7E
:101BD000CAFDC2EBD7A8D3AAB5EA000008B5012117
:101BE0000820FEF7CFFD4FF47060ADF80000032031
:101BF0008DF8020010208DF8030069468048FEF73A
:101C000085FE4FF47040ADF8000003208DF802000F
:101C100048208DF8030069467948FEF777FE08BD35
:101C20002DE9F0474FF0FF0A7548FEF70BFF044619
:101C3000E0B240F47E417248FEF71EFF7048FEF7A6
:101C400001FF04464FEA2429B9F1FE0F20D01420E9
:101C5000FFF78EFAB9F1FE0F1AD009F0F008B8F1CB
:101C6000700F11D0B8F1B00F0BD0B8F1D00F05D074
:101C7000B8F1E00F0BD14FF0000A08E04FF0010A75
:101C800005E04FF0020A02E04FF0030A00BF00BF78
:101C900000BF5B48FEF7D6FE04464FEA2429B9F19F
:101CA000FE0FF6D15648FEF7CDFE0446E0B240F4F2
:101CB0007D415348FEF7E0FE5148FEF7C3FE04465F
:101CC0002512FD2D1FD01420FFF752FAFD2D1AD03A
:101CD00005F0F008B8F1700F11D0B8F1B00F0BD0CB
:101CE000B8F1D00F05D0B8F1E00F0BD14FF0040AD6
:101CF00008E04FF0050A05E04FF0060A02E04FF059
:101D0000070A00BF00BF00BF3D48FEF79BFE044628
:101D10002512FD2DF8D13A48FEF794FE0446E0B2B4
:101D200040F47B413648FEF7A7FE3548FEF78AFEB1
:101D300004462612FB2E1FD01420FFF719FAFB2EA3
:101D40001AD006F0F008B8F1700F11D0B8F1B00F4A
:101D50000BD0B8F1D00F05D0B8F1E00F0BD14FF098
:101D6000080A08E04FF0090A05E04FF00A0A02E00D
:101D70004FF00B0A00BF00BF00BF2148FEF762FE14
:101D800004462612FB2EF8D11D48FEF75BFE0446E2
:101D9000E0B240F477411A48FEF76EFE1848FEF7AD
:101DA00051FE04462712F72F1FD01420FFF7E0F949
:101DB000F72F1AD007F0F008B8F1700F11D0B8F172
:101DC000B00F0BD0B8F1D00F05D0B8F1E00F0BD1A8
:101DD0004FF00C0A08E04FF00D0A05E04FF00E0A34
:101DE00002E04FF00F0A00BF00BF00BF0448FEF73B
:101DF00029FE04462712F72FF8D15046BDE8F08798
:101E0000000C014010B504460420FFF755FDF948C9
:101E10000078632802D0792808D106E00421002048
:101E2000A268FFF71EFE183401E000E000BF00BF0B
:101E300010BD10B504460420FFF73EFDE068804762
:101E400010BD10B50446012C2AD0042C7DD0062CE0
:101E50004BD0092C7AD1E848E8490978405C401C0D
:101E6000E549E64A127888540846E4490978415C15
:101E7000E34800684078401E814204DD0020DE49CE
:101E8000DE4A12788854DC49DC4A1278895C01EB1E
:101E90004101DB4A126802EBC100FFF7B3FF9BE090
:101EA000D548D6490978405C48B9D548006840789B
:101EB000401EC1B2D048D14A1278815408E0CE48C1
:101EC000CE490978405C401ECB49CC4A12788854F0
:101ED000C949CA4A1278895C01EB4101C84A1268B3
:101EE00002EBC100FFF78EFF76E0C348C3490978D3
:101EF000405C00EB4000C249096801EBC00000698A
:101F000028B3BD48BD490978405C00EB4000BC499E
:101F1000096801EBC0000069B9490860B74800785A
:101F2000401CB64908700021B348B44A1278815465
:101F30000146B24A1278895C01EB4101B04A12684D
:101F400002EBC100FFF75EFF19E019E043E0AA4988
:101F5000AA4A1278895C01EB4101A94A126802EB96
:101F6000C100FFF766FFA449A44A1278895C01EB1F
:101F70004101A34A126802EBC100FFF743FF2BE0C7
:101F80009D489E490978405C00EB40009C490968E7
:101F900001EBC0004069E8B1974898490978405C76
:101FA00000EB40009649096801EBC0004069944984
:101FB000086092480078401E904908708E498F4A08
:101FC0001278895C01EB41018D4A126802EBC10075
:101FD000FFF718FF00E000BF00BF10BD704710B54D
:101FE000002473E0FFF71CFE0E2800D16FE000F024
:101FF0004DFD2021834800F030FF834800783021D8
:1020000001EB20107F4908707F48007800F00F0036
:10201000303048703A2088707C480078302101EBDD
:1020200020107849C8707948007800F00F003030EF
:1020300008713A20487176480078302101EB201071
:10204000704988717248007800F00F003030C87114
:102050000A4604210846FFF74FFC2021694800F09A
:10206000FCFE3220674908703020487069480078CB
:10207000302101EB2010634988706648007800F039
:102080000F003030C8702E2008716348007830216E
:1020900001EB20105B4948715F48007800F00F00A9
:1020A000303088712E20C8715C480078302101EBF7
:1020B0002010544908725948007800F00F00303061
:1020C00048720A4602210320FFF716FC8AE700BF88
:1020D0000220FFF7F1FB0420FFF7EEFB10BD70B507
:1020E0004F4C204601F0F6FF05462A460B464DA10F
:1020F000444800F0E5FD4CA202210320FFF7B1FCAB
:10210000404A04210846FFF7F7FB0DE0C820FFF71F
:102110002FF845A204210320FFF7A3FCC820FFF7F6
:1021200027F80420FFF7E3F900F005FA0028EDD1C5
:102130001DE0FFF775FD0E2800D119E000F01AFA36
:10214000064602F0B5F80546394901F0EFFF0446AE
:10215000204601F0BFFF05462A460B4631A129481B
:1021600000F0AEFD274A04210846FFF7C5FBE0E773
:1021700000BF0220FFF7A0FB0420FFF79DFB70BD0E
:102180002DE9F0474FF00008C14600240026002743
:10219000002528A202210846FFF763FC27A204219C
:1021A0000F20FFF7A9FBF9E0FFF73AFD8046B8F1F1
:1021B000FF0FF8D0B8F1100F70D2DFE808F012432B
:1021C0004E9E596470A37B8692A8B208D8AD04EBEA
:1021D00084004400B4F5004F01DB2C4600E02546A6
:1021E000C7E004EB84004000441CB4F5004F27DB3B
:1021F0002C4626E094080020B8070020950800200F
:10220000B4070020D0090020B8080020B70800203B
:10221000B6080020BC080020BB080020BA08002037
:102220000000C84125660000CEC2B6C8000000000C
:1022300000002041BCC6CBE3C6F700003000000020
:10224000254696E004EB84004000841CB4F5004F62
:1022500001DB2C4600E025468BE004EB84004000C7
:10226000C41CB4F5004F01DB2C4600E0254680E09D
:1022700004EB84004000041DB4F5004F01DB2C4644
:1022800000E0254675E004EB84004000441DB4F5F1
:10229000004F01DB2C4600E025466AE068E004EBD5
:1022A00084004000841DB4F5004F01DB2C4600E0A3
:1022B00025465EE004EB84004000C41DB4F5004FE9
:1022C00001DB2C4600E0254653E004EB840040008F
:1022D00000F10804B4F5004F01DB2C4600E0254670
:1022E00047E004EB8400400000F10904B4F5004F1E
:1022F00001DB2C4600E025463BE0264600244FF05B
:102300002B0936E0264600244FF02D0931E0264601
:1023100000244FF02A092CE0264600244FF02F0914
:1023200027E0B9F12A0F13D0B9F12B0F06D0B9F17C
:102330002D0F08D0B9F12F0F16D10FE0A7190024E7
:1023400000263D4611E0371B002400263D460CE0E8
:1023500004FB06F7002400263D4606E094FBF6F752
:10236000002400263D4600E000BF00BF01E016E06B
:1023700000BF00BF2A460EA10E4800F0A1FC0420B9
:10238000FFF79AFA0B4800F049FDC0F1100000F089
:10239000FF0A084A04215046FFF7AEFA04E702207C
:1023A000FFF78AFABDE8F087704770477047000072
:1023B00025640000D00900209048006820F070409B
:1023C0008E4908600846006840F000400860704789
:1023D0008A48006820F07040884908600846006814
:1023E00040F040500860704710B5FFF7F1FF002043
:1023F0008349086040F2EE20FEF796FE01208149F5
:10240000C1F8BC010F20FEF78FFE10BD10B50024EF
:10241000FFF7D2FF04E0601CC4B20120FEF784FE87
:102420004FF400417548001FFEF703FB08B1C82CAC
:10243000F1DBC82C01DB012010BD002404E0601C8E
:10244000C4B20120FEF770FE4FF400416B48001F3C
:10245000FEF7EFFA08B9F02CF1DBF02C01DB0120DC
:10246000EAE70020E8E710B5FFF7B2FF0020644973
:1024700008600220FEF758FE01206249C1F8BC0145
:10248000FFF79AFF0C20FEF74FFE4FF400415B4828
:10249000001FFEF7CEFA08B1012400E0002432202C
:1024A000FEF742FE204610BD70B50026012508E06B
:1024B000FFF7D9FF0446E00140EA6600C6B2681C97
:1024C000C5B2082DF4DD304670BD70B50446FFF787
:1024D0007FFF012520E004F0010664106EB10020AA
:1024E000474908600220FEF71FFE01204549C1F858
:1024F000BC013C20FEF718FE0CE0002040490860BB
:102500003C20FEF711FE01203E49C1F8BC0102202B
:10251000FEF70AFE681CC5B2082DDCDD70BD10B5E3
:10252000FFF762FFFFF772FFCC20FFF7CEFF4420DA
:10253000FFF7CBFF10BD08B501210420FEF722F9FB
:102540004FF40040ADF8000010208DF80300032088
:102550008DF8020069462948001FFEF7D7F94FF4AD
:1025600000412648001FFEF77EFAFFF73DFFFFF708
:102570004DFF08BD2DE9F84FFFF7D1FFFFF734FFFE
:10258000FFF744FFCC20FFF7A0FFBE20FFF79DFF21
:10259000FFF78AFF8346FFF787FF0446072C08DD15
:1025A000E043C4B26FEA0B0000F0FF0B4FF0000AEB
:1025B00001E04FF0010AA1464FEA09200FFA80F925
:1025C00009EB0B000FFA80F9484601F071FE00900C
:1025D00001F080FD074600220B4B01F07DFC054613
:1025E00001F04AFC0FFA80F9BAF1000F02D0484618
:1025F000BDE8F88FC9F1000000B2F9E70408014016
:10260000BC012142000021420000E43F08B54FF622
:102610000770ADF8000010208DF8030003208DF83E
:1026200002006946FE48FEF771F90121FD48FEF7F8
:102630003EFA4FF4C040ADF8000010208DF80300C2
:1026400003208DF802006946F748FEF75FF908BDE0
:1026500008B54FF48050ADF8000010208DF803004D
:1026600003208DF802006946EF48FEF74FF908BDD8
:1026700008B54FF48050ADF8000048208DF80300F5
:1026800003208DF802006946E748FEF73FF908BDD0
:1026900010B50221E248FEF7E8F90421E048FEF710
:1026A000E2F90121DE48FEF7DEF9DD48FEF7CAF95E
:1026B00000240A20FEF75CFD0121D948FEF7D5F978
:1026C000204610BD10B5044600BFFFF7E1FF00280B
:1026D000FBD10221D248FEF7C8F90421D048FEF709
:1026E000C4F90121CE48FEF7C0F90120FEF740FDF4
:1026F0004FF4704000EA0420C94910310860E043FB
:102700004FF4704101EA0020C549143108600120EE
:10271000FEF72EFD0121C248FEF7A5F90120FEF7C4
:1027200027FD0121BE48FEF7A0F90120FEF720FD9C
:1027300010BD10B5044600BFFFF7AAFF0028FBD16B
:102740000221B748FEF791F90421B548FEF78DF94B
:102750000121B348FEF789F90120FEF709FD4FF486
:10276000704000EA0420AE4910310860E0434FF4A5
:10277000704101EA0020AA49143108600120FEF7E7
:10278000F7FC0121A648FEF76EF90120FEF7F0FCE8
:102790000121A348FEF769F90120FEF7E9FC4FF497
:1027A000704000EA04309E4910310860E0434FF465
:1027B000704101EA00309A49143108600120FEF7A7
:1027C000D7FC01219648FEF74EF90120FEF7D0FC18
:1027D00001219348FEF749F90120FEF7C9FC10BD1D
:1027E00010B5044600BFFFF753FF0028FBD10221BC
:1027F0008B48FEF738F904218948FEF736F90121A4
:102800008748FEF732F90120FEF7B2FC4FF4704022
:1028100000EA0420824910310860E0434FF470411F
:1028200001EA00207E49143108600120FEF7A0FC77
:1028300001217B48FEF717F90120FEF799FC0121E1
:102840007748FEF712F90120FEF792FC4FF4704032
:1028500000EA0430724910310860E0434FF47041DF
:1028600001EA00306E49143108600120FEF780FC57
:1028700001216B48FEF7F7F80120FEF779FC0121F2
:102880006748FEF7F2F80120FEF772FC0221644867
:10289000FEF7EBF810BD10B50F20FEF769FC3220F3
:1028A000FFF747FF0520FEF763FC2820FFF741FFF5
:1028B0000520FEF75DFC0820FFF73BFF0520FEF733
:1028C00057FC0120FFF735FF0520FEF751FC0620DD
:1028D000FFF72FFF0520FEF74BFC0C20FFF729FF29
:1028E0000520FEF745FC10BD70B504464FF480414D
:1028F0004D48FEF7BAF81420FEF716FCFFF7A8FEC5
:10290000002521E004F001062EB101221103464802
:10291000FEF7ADF805E000224FF480514248FEF783
:10292000A6F864104FF480413F48FEF79CF814204D
:10293000FEF7FAFB4FF480413B48FEF796F814206F
:10294000FEF7F2FB681CC5B2082DDBDB70BD70B56D
:1029500005460C464FF400513348FEF786F8142024
:10296000FEF7E2FB4FF400512F48FEF77CF81420ED
:10297000FEF7DAFB2846FFF7B7FF2046FFF7B4FF64
:102980004FF400512848FEF770F81420FEF7CCFBF6
:1029900070BD70B54FF480412348FEF766F81420EF
:1029A000FEF7C2FBFFF764FE00251BE064104FF446
:1029B00080511D48FEF73DF8012801D144F0800404
:1029C0004FF480411848FEF74EF81420FEF7ACFB98
:1029D0004FF480411448FEF748F81420FEF7A4FB9A
:1029E000681CC5B2082DE1DB204670BD70B50446F9
:1029F0004FF400510C48FEF738F81420FEF794FB12
:102A00004FF400510848FEF72EF81420FEF78CFB17
:102A10002046FFF769FFFFF7BCFF054606E0000010
:102A2000000C014000043000000801404FF4005148
:102A30008948FEF71AF81420FEF776FB4FF4805110
:102A40008548FEF712F81420FEF76EFB4FF4805114
:102A50008148FEF708F81420FEF766FB284670BD93
:102A600010B500218E20FFF772FF002407E07B4A9B
:102A7000115D7B4A105DFFF76AFF601CC4B2072C32
:102A8000F5DB80218E20FFF762FF10BD0EB5754982
:102A90000878FFF7ABFF7449087072494878FFF770
:102AA000A5FF724908706F498878FFF79FFF70494A
:102AB00008706C494879FFF799FF6E4908706949B9
:102AC000C878FFF793FF6C49087066490879FFF7EB
:102AD0008DFF6A49087063498879FFF787FF684965
:102AE00008706148007861490978614A1278CDE937
:102AF00000210290604803786048027860480178BD
:102B000060A000F0D1F80EBD10B58020FFF711FED7
:102B100057490C78E11704EB11710911604A505CB8
:102B2000FFF75EFE52490C78E11704EB11710911B1
:102B3000A4EB01115A4A505CFFF752FE3A20FFF70E
:102B40004FFE4A490C78E11704EB11710911544A00
:102B5000505CFFF745FE45490C78E11704EB117115
:102B60000911A4EB01114E4A505CFFF739FE3A20DF
:102B7000FFF736FE3C490C78E11704EB117109119F
:102B8000474A505CFFF72CFE37490C78E11704EBFD
:102B900011710911A4EB0111414A505CFFF720FEAD
:102BA000C020FFF7C6FD36490C78E11704EB117120
:102BB00009113B4A505CFFF713FE31490C78E117CD
:102BC00004EB11710911A4EB0111354A505CFFF7B8
:102BD00007FE2D20FFF704FE28490C78E11704EBCF
:102BE000117109112E4A505CFFF7FAFD23490C7848
:102BF000E11704EB11710911A4EB0111284A505C93
:102C0000FFF7EEFD2D20FFF7EBFD1B490C78E117D8
:102C100004EB11710911224A505CFFF7E1FD1649DE
:102C20000C78E11704EB11710911A4EB01111C4A96
:102C3000505CFFF7D5FD2D20FFF7D2FD0D490C7834
:102C4000E11704EB11710911A4EB0111144A505C56
:102C5000FFF7C6FD10BD000000080140A1080020DC
:102C6000A8080020AF080020B6080020B708002000
:102C7000B8080020B9080020BA080020BB080020CE
:102C8000BC080020257820C4EA202578D4C2257805
:102C9000C8D5202578CAB12578B7D62578C3EB00EA
:102CA00096080020704700000FB4044910B503AA2D
:102CB000029800F07FFB10BC5DF814FB3000002090
:102CC0000FB41CB5074B06AA7B44694600900598D3
:102CD00000F057FB0020694600F066FB1CBC5DF865
:102CE00014FB0000DD0600002DE9F0410E4604460D
:102CF000002020622046E168884730B3252805D0AF
:102D0000D4E901219047206A401CF2E7E16820469F
:102D100000278847050018D0A5F14100192802D8DE
:102D200020354FF400673246294620462760FDF7DC
:102D300037FA40B1012804D0F61D26F00706083600
:102D4000D8E7361DD6E72846DAE7206ABDE8F081E5
:102D50002DE9F0410646002410687529314615A575
:102D600010D0AFF30080002802DA404212A507E03D
:102D700031688A0701D511A502E0490704D510A5DD
:102D8000012401E0AFF3008000210A2306F12407AB
:102D900007E0B0FBF3F203FB12003030785410462A
:102DA000491C0028F5D123462A463046BDE8F041AB
:102DB00000F07EB8000000002D0000002B00000095
:102DC0002000000070B504460D4621461068AFF3A0
:102DD00000802188090502D50F4A7A4402E00E4A94
:102DE0007A440E32002104F1240305E000F00F06BE
:102DF0000009965D5E54491C0028F7D12078002315
:102E0000000704D5702D02D009B1022311322046EB
:102E1000BDE8704000F04CB89C15000010B5431C94
:102E200002E010F8011B71B18107FAD14FF00132B5
:102E300002C88C1A8C4314EAC211F9D0C01A0A06CF
:102E400003D0C01E10BDC01A10BD0A0401D0801EE0
:102E500010BD0902FCD0401E10BD4FF0000200B5AD
:102E6000134694469646203922BFA0E80C50A0E8AD
:102E70000C50B1F12001BFF4F7AF090728BFA0E85B
:102E80000C5048BF0CC05DF804EB890028BF40F827
:102E9000042B08BF704748BF20F8022B11F0804F69
:102EA00018BF00F8012B7047704770477047704794
:102EB0002DE9F0470D4699469246044600F1240854
:102EC0000168880604D5E06921F01001216000E066
:102ED0000120A84201DD471B00E00027A1697A1903
:102EE00002EB0900081AA0612078C00602D420462F
:102EF000AFF30080002608E0D4E901211AF80600AB
:102F00009047206A401C761C20624E45F4DB2078F6
:102F1000C0060AD52046AFF3008006E0D4E90121BF
:102F200030209047206A401C2062381EA7F101071C
:102F3000F4DC07E0D4E9012118F805009047206A85
:102F4000401C2062281EA5F10105F3DC2046AFF3EA
:102F500000802078000602D50220BDE8F08701201D
:102F6000FBE770472DE9FF4F0C461E464FF0FF3739
:102F70008BB0D2E90001DDF860800A908A46C1F387
:102F80000A5505B93D46002108464FF00000BAF148
:102F9000000F00F4400005DA00EB80004FF4400120
:102FA00001EA50004FEA9059B9F1010F00DDB9462E
:102FB0000A9850EA4A000ED044F61050A5F2FF35A8
:102FC00045432F14B8F1000F1ED07542291E1EDD97
:102FD000C9F100021CE0B8F1010F4FF0000001D070
:102FE000302103E0F24305E02154401CB042FBDBFA
:102FF00030460022002121540B99C1F80880C1E914
:1030000000200FB0BDE8F08FBD1B6D1CDEE74A4607
:1030100000DA694206A800F069FA06AB93E80700F7
:1030200003AB83E8070050460A9900F03FFB8DE8A8
:103030000700A0F500501F3800900398002D09DD0F
:1030400042F21F014A46084403A90390684600F073
:103050009EFD08E0A0F500504A461F3803A90390E2
:10306000684600F0A8FD8DE807000004000C03D0BE
:103070004FF0FF30410800E01046B8F1000F03D0D8
:103080000022009215461EE0751E05D400F0A8F936
:10309000303262556D1EF9D5B3460122084302D085
:1030A00000227F1C04E02078302801D100227F1EFE
:1030B000002A099786D01DE0112D07DA00F090F95B
:1030C000303262556D1C50EA0102F5D1084302D03E
:1030D0000098C8B10EE00021681E05E0235C625C28
:1030E00063542254401E491C8142F7DBAB46A81BA7
:1030F000401E0990002004F80B000B98099AC0F8B4
:103100000880C0E9002B7CE711264FF0000859E742
:103110002DE9F04F88460446D21D22F0070191B0F8
:10312000D1E90001CDE90A0100F07BFE02460B98CF
:10313000C00F01D02D2007E02068810701D52B208A
:1031400002E0202101EAC000032A099001D0072AE9
:1031500005DB03464146204600F088F909E1207866
:10316000800601D5E06900E00620B8F1650F8146D0
:1031700006D0B8F1660F18D0B8F1670F70D131E002
:103180000020B9F1110F009001DB112301E009F1DA
:1031900001030AAA01A90CA8FFF7E4FEDDE90C70FF
:1031A000002609F10105834647E001204B460090C7
:1031B0004FF000470AAA01A90CA8FFF7D3FEDDE9EA
:1031C0000DB00C995D46002610B909F101000D18EB
:1031D000B9EB050003D4C0F1FF3609F10105A5EBF9
:1031E00009002BE0B9F1010F01DA4FF001090020CD
:1031F000B9F1110F0090484601DD112300E00346AC
:103200000AAA01A90CA8FFF7ADFEDDE90C704D4636
:1032100000268346207800070AD4AB4500DA5D46D5
:1032200001A8012D04DD411911F8011C302907D036
:103230004F4502DA17F1040F04DA012082460FE04D
:103240006D1EEEE7002F02DCED1B3E4403E0781C10
:10325000A84200DD7D1CB81B00F1010A4FF00047B9
:103260002078000703D4AA4501DB4FF0FF3A002184
:10327000B7F1004F0DF143088DF8431022D0022022
:103280002B23002F01DA7F422D234FF00A0C011E61
:10329000A0F1010000DC47B197FBFCF10CFB1172BF
:1032A0000F46303208F8012DF1E7A8F10100037054
:1032B0002188090501D5452100E06521A0F101081B
:1032C00000F8011C09980FA9A1EB0807FF1D00B128
:1032D0000120411901EBEA70A1693844081A401E27
:1032E000A0612078C00602D42046AFF30080099880
:1032F00028B1D4E901219047206A401C206220783F
:10330000C00622D52046AFF300801EE0002E04DB6D
:10331000B34502DD01A8805D00E03020D4E9012141
:103320009047206A401C2062761CAAF101005FEAE7
:10333000000A0AD100F050F8C0680168405CD4E986
:1033400001219047206A401C2062281EA5F101053A
:10335000DCDC07E0D4E9012118F8010B9047206A72
:10336000401C2062381EA7F10107F3DC2046AFF3B2
:103370000080022011B045E601694A1C026108780C
:10338000704700B58FB0CDE90131002105910549A5
:103390007944CDE9031011466846FFF7A5FC0FB04C
:1033A00000BD0000E5FFFFFF0A6802F8010B0A609C
:1033B00070470000074B70B50D467B44FFF7E1FFF7
:1033C0000446284600F0FEF810B14FF0FF3070BD03
:1033D000204670BD0FDEFFFF00487047100A002036
:1033E00030B5B0F10A024FEA900E71F100034EEAD7
:1033F000817EB0EB0E0061EB91014FEA101E4EEAA8
:10340000017E10EB0E0041EB11114FEA102E4EEA37
:10341000016E10EB0E0041EB11214FEA104E4EEA07
:10342000014E10EB0E0041EB1141401841F100013B
:103430004FEAD00040EA41704FEAD10110EB80051D
:103440004FEA810444EA907444EB01046D1944EBA3
:103450000404521BA3414FF0000348BF0A3200D5B9
:1034600030BD401C41F1000130BD00002DE9F041AC
:103470001F46044603260168072A01F4006004DBA6
:1034800008B116A505E016A503E008B115A500E0F2
:1034900015A521F010002060A069C01EA0610FB129
:1034A000401EA0612046AFF300804FB1D4E9012156
:1034B00038469047206A401C2062C01C206206E00B
:1034C000206AFAE7D4E9012115F8010B9047761E2E
:1034D000F8D22046AFF30080BDE8F0814E414E00A7
:1034E0006E616E00494E4600696E66002DE9F04738
:1034F000814616468AB0324878440DC88DE80D00E2
:103500002F487844801C03AC0DC884E80D0041F6B8
:103510009B303722014491FBF2F0A0F1800502FBC1
:1035200010141B3C02D56442012000E00020DFF8AB
:1035300090A080460027FA44AAF1BA0A0DE0E007FD
:1035400009D03246684607EB47010AEB810100F0DB
:1035500032FB8DE8070064107F1C002CEFD1184F60
:103560007F44A83F18E0E80714D007EB04100DF1E2
:10357000180A90E80E008AE80E00C068F04201D1F7
:1035800098190890324606A903A800F014FB03AB73
:1035900083E807006D10641C002DE4D132466946B3
:1035A000B8F1000F03A802D000F0F1FA01E000F03A
:1035B00002FBC9E90001C9F808200AB0BDE8F0879C
:1035C000240F0000007B00F0800070470048704727
:1035D000F00900207546FFF7F9FFAE460500694681
:1035E000534620F00700854618B020B5FDF7EEFCE5
:1035F000BDE820404FF000064FF000074FF00008F4
:103600004FF0000B21F00701AC46ACE8C009ACE874
:10361000C009ACE8C009ACE8C0098D467047044653
:10362000AFF300802046FCF7DBFD00004FF0013CCB
:1036300050F8042B51F8043B9A4221D1A2EB0C0321
:10364000934313EACC1317D150F8042B51F8043BE1
:103650009A4215D1A2EB0C03934313EACC130BD17E
:1036600050F8042B51F8043B9A4209D1A2EB0C0309
:10367000934313EACC13DBD04FF00000704700BF38
:10368000D01A01BAB1FA81F101F0180122FA01F061
:10369000CB40C1F12001DBB2C0B2C01A2CFA01F359
:1036A000D11A914311EAC311E6D170475FEA400C89
:1036B00008BF91F0000F4FEA8C234FEAC12243EA82
:1036C00051514FEA1C5018BF00F5F0404FEA30004E
:1036D00018BF41F000415FEA6C5C00F02980BCF14A
:1036E000FF3F08BF40F080407047130C06BF120434
:1036F0004FF0100C4FF0000C130E04BF12020CF12F
:10370000080C130F04BF12010CF1040C930F04BF3B
:1037100092000CF1020CD30F04BF52000CF1010C0B
:1037200011464FF00002A0F11F00A0EB0C00704703
:1037300011F0004F08BF704731F000413FF4D5AFA2
:103740000B0C06BF09044FF0100C4FF0000C0B0ED1
:1037500004BF09020CF1080C0B0F04BF09010CF1A6
:10376000040C8B0F04BF89000CF1020CCB0F04BFBB
:1037700049000CF1010CCCF12003A0EB0C0022FA63
:1037800003F302FA0CF241EA030100F10100704771
:1037900020F07F4C80EA030023F07F47ACEB070367
:1037A00003F57C5300F0004003F1FF032DE980494D
:1037B0004FEA154B09B44FEA144325EA0B4E24EAAD
:1037C00003480FF2042606EB132749083E785FEA08
:1037D000320203FB0667C7F5000707FB06F64FEA50
:1037E00054374FEAD64606F1020607FB066CCCF1C9
:1037F000005C4FEA1C472CEA074C07FB06F40CFB65
:1038000006F504EB15464FEA961634BF00204FF03C
:1038100000404FEAD13706FB07FC4FEA1C4C0CFB7B
:103820000BF7D21B03FB0CF761EB07010CFB0EF748
:10383000B0EB074072EB17420CFB08F734BFA2EB6A
:103840000742B2EB074261EB17414FEA0C444FEAE3
:10385000910706FB07FC4FEA1C4C0CFB0BF7B0EB87
:10386000C74072EB573203FB0CF734BFA2EBC742E1
:10387000B2EBC74261EB57310CFB0EF7B0EBC70060
:1038800072EB57720CFB08F734BFA2EBC702B2EB26
:10389000C70261EB5771039F4FEA816141EA9211C0
:1038A00004EBCC044FEAD1374FEA826206FB07FCF7
:1038B00042EA90124FEA80604FEA1C4C0CFB0BF777
:1038C000D21B03FB0CF761EB07010CFB0EF7B0EB0F
:1038D000074072EB17420CFB08F734BFA2EB07421C
:1038E000B2EB074261EB17414FEA8C554FEA910763
:1038F00004EB9C2406FB07FC4FEA1C4C0CFB0BF76B
:10390000B0EBC74072EB573203FB0CF734BFA2EBAE
:10391000C742B2EBC74261EB57310CFB0EF7B0EB7D
:10392000C70072EB57720CFB08F734BFA2EBC7025B
:10393000B2EBC70261EB577115EB4C254FEA816181
:1039400041EA92114FEA82624FEAD13742EA90127D
:1039500006FB07FC44F100044FEA80604FEA1C4C70
:103960000CFB0BF7D21B03FB0CF761EB07010CFB05
:103970000EF7B0EB074072EB17420CFB08F734BFB1
:10398000A2EB0742B2EB074261EB174115EB1C15A6
:103990004FEA813141EA92414FEA823242EA904253
:1039A0004FEA80304FEA0C7644F1000448EA0343C2
:1039B0004EEA0B484FF0000EB2EB080C71EB030718
:1039C00024BF624639464EEB0E0E4FF0000B001836
:1039D000524149414BEB0B0BB2EB080C71EB030767
:1039E0007BF1000B24BF624639464EEB0E0E4FF0C2
:1039F000000B0018524149414BEB0B0BB2EB080C8A
:103A000071EB03077BF1000B24BF624639464EEB96
:103A10000E0E51EA020718BF46F0010616EB0E76AD
:103A200055F1000254F1000103D5BDE88901BDE85C
:103A30000088BDE88901B619BDE80048524141EB54
:103A40000101A3F10103704780807F7E7D7C7B7A3A
:103A50007978777676757473727171706F6E6E6D3A
:103A60006C6C6B6A6A6968686766666564646363E0
:103A700062616160605F5F5E5E5D5D5C5C5B5B5A66
:103A80005A595958585757565655555554545353D3
:103A900052525251515050504F4F4F4E4E4D4D4D2E
:103AA0004C4C4C4B4B4B4A4A4A4949494848484779
:103AB00047474746464645454544444444434343B7
:103AC0004342424242414141002B26D4770021D05B
:103AD0001CB54FEA370703B44FF010004FF0100148
:103AE0004FF000000FBC0BF1010BBDE81040BBF123
:103AF000010F08BF5FEA170722BF12F1010211F19F
:103B000001014FF0004143F1000300F0004043EA9F
:103B100000007047F9D35708DAE746EA064613F182
:103B2000400F4FEA16461FDD13F1200FDFBF16438B
:103B30000A46002120335B42C8D0C3F1200746EA81
:103B4000064602FA07F74FEA164646EA0706C3F1A9
:103B5000200722FA03F201FA07F721FA03F14FF0E6
:103B6000000342EA0702B1E746EA020646EA0646D1
:103B70004FEA164646EA0106BCBF46EA0646360C40
:103B80004FF000034FF000024FF000019EE72DE9D7
:103B9000C048934630B491E8380007C831EA400C79
:103BA00048BF34EA430C03D5FFF7F2FDFFF78CFF63
:103BB000F0BCBDE800882DE9C048934630B491E8D8
:103BC000380007C810F0804F08BF13F0804F03D1B2
:103BD00000F005F8FFF778FFF0BCBDE8008820F0A2
:103BE0007F4780EA030023F07F4C07EB0C03A3F52B
:103BF0007C5300F00040A3F1FE0392F0000F00F0B0
:103C0000B38095F0000F00F077802DE901494FEA6D
:103C100011404FEA144621EA004800FB06FC24EA62
:103C2000064708FB06F607FB08F800FB07F718EB4A
:103C300006484CEB164C4FEA124B18EB07484FEA7C
:103C400015464CEB174022EA0B4E0BFB06FC25EA0F
:103C500006470EFB06F607FB0EFE0BFB07F71EEBF7
:103C6000064E4CEB164C4FF000061EEB074E4CEB8D
:103C7000174B18EB0B0840F1000018EB0E0B58EB3C
:103C8000000840F100008F1A4FF000013CBFC9430B
:103C9000661B14BFB5EB040C00213CBFC943F61BE7
:103CA0004FEA17444EEA8E0E27EA04454FEA1C47B6
:103CB00004FB07622CEA074C05FB07F70CFB05F633
:103CC00004FB0CFC16EB074642EB174216EB0C46C6
:103CD00042EB1C421BEB060658EB0202414146EA4E
:103CE0009E0601D5BDE80189B619524141EB01019B
:103CF000A3F10103BDE801894FEA14454FEA1147DA
:103D000024EA054621EA074C05FB07F406FB07F702
:103D10000CFB06F105FB0CFC11EB074144EB1744CF
:103D20004FEA124711EB0C4144EB1C4422EA074CCA
:103D300005FB07F206FB07F70CFB06F605FB0CFC80
:103D400016EB074642EB174216EB0C4642EB1C45BE
:103D50006A1854F1000148BF7047B619524141EB4F
:103D60000101A3F10103704795F0000F37D04FEA2E
:103D700011424FEA144721EA024624EA074C02FBAB
:103D800007F106FB07F70CFB06F402FB0CFC14EB37
:103D9000074441EB17414FEA154714EB0C4441EB44
:103DA0001C4125EA074C02FB07F506FB07F70CFB55
:103DB00006F602FB0CFC16EB074645EB174516EB27
:103DC0000C4645EB1C42121951F1000148BF7047E7
:103DD000B619524141EB0101A3F1010370474FEACB
:103DE00014454FEA114724EA054621EA074C05FB32
:103DF00007F106FB07F70CFB06F24FF0000605FB88
:103E00000CFC12EB074241EB174112EB0C4251EB59
:103E10001C4148BF7047921841EB0101A3F1010317
:103E20007047490050EAC12018BF04204A0D18BF4E
:103E300040F0010040F2FF72B2EB515F08BF40F06A
:103E40000200012808BF05207047000010B50029B6
:103E50000AD00878002807D005487844FFF7E6FB29
:103E6000002801D0002010BD0248784410BD000099
:103E7000960600008E0600004FEA41034FEA5353B6
:103E8000A3F58063D3F11E03C8BFD3F1210C0CDD71
:103E90004FF0004242EAC12242EA505232FA03FC99
:103EA0008CEAE17CACEBE1707047102BC4BF0020C2
:103EB000704703F5787CBCF1FF3F04D06FF00042FF
:103EC00082EA2100704770B500F0B0F84992248072
:103ED00000207047F2E70000DFF848C170B51CEA27
:103EE000111E1EBF1CEA13159EEA0C0F95EA0C0F5B
:103EF00000F06F8081EA030423EA4C134EEAD47E7B
:103F000021EA4C1141F4801143F48013AE44A1FB2B
:103F1000024CA0FB0365AEF17F7E361955EB0C0514
:103F2000A1FB034C4CF10003A0FB021C16EB0C069A
:103F3000654153F10003094218BF46F0010613F42E
:103F4000007F0BD14FEA03314FEA0530340341EAD9
:103F5000155140EA16506FF003020AE04FEAC32100
:103F60004FEAC520F40241EA555140EA56506FF03D
:103F7000020202EB2E4201EB025585EACE710AD015
:103F80005FEA440C18BF24F0004450F1000041F1F6
:103F9000000120EAD47040F2FE7C624500D270BD80
:103FA000A84214BF4FF080444FF04044002E08BF99
:103FB0000024BEF1806FA8BFA1F1C041BDE87040F0
:103FC00080F282804FF0000001F1C04101F0004119
:103FD00070479EEA0C0F0CEA131518BF95EA0C0FF8
:103FE00006D04FF0000081EA030E0EF0004170BDD4
:103FF00000F01CF88900013E00F007B800F009B895
:104000004FEA430C5FEA5C5C08D081EA030100F0F0
:104010005BB84FEA410C5FEA5C5CF6D14FF0000000
:10402000014970470000FF070000F87F0EF1020E03
:104030002EF0030E5EF8046B364205D4012A43EBE2
:10404000030515F5001F12D8012841EB010C1CF5E2
:10405000001F0CD80ED14FEAD17C15F5001F0CEBD8
:104060004C0C0CF1020C08BF4CEBD37C04E04FF07D
:10407000080C01E04FEAD37C0CEB4C0526FA05F660
:1040800006F00706B6F1040C06D20EEB860CBDE86E
:1040900070404CF0010C6047DFE80CF0090B0202A5
:1040A0004FF000414FF00000A1F5002170BD19460E
:1040B0001046012851EB010418BFD4F5001484BF49
:1040C000002001F0004170BD0808A0F500114FEA82
:1040D0003101704743004FEAD30C4FEA3C0C434098
:1040E0001FBF40070CF1605113F0FE4F70471CF0EA
:1040F000006F03D100200CF0004170470CF000432A
:1041000043EA507010B540EACC0000F0E9F800BF77
:10411000000000924FEA0001FFF7D6BF4FF00041C8
:104120004FF00000A1F50021704700004FF47F0C14
:104130001CEAD0121EBF1CEAD11392EA0C0F93EABC
:104140000C0F00F0858090EA010F48BF42F48072A6
:1041500040F4000C41F400002CF07F4120F07F403F
:1041600000B58142A2EB03020FF2081CACEB504EEB
:10417000C0F100009EF800E04FEA4E0E00FB0EFC7E
:1041800038BF49004FEA2C1C02F5FA020CFB0EF373
:104190004FEACE1E4FEA112C4FEAC1210EEB635EAF
:1041A00042EB22420EFB0CFC4FEA1C5300FB0311B6
:1041B0004FEA112C4FEA01310EFB0CFC4FEADC4CAC
:1041C00000FB0C11C14228BF09184CEB03335DF80A
:1041D00004EB10EB410143EBC250B2F57C0F38BF4A
:1041E000704729D512F0F00F1CBF00F1C04000F05D
:1041F00000407047008182838485868788898B8C04
:104200008D8E8F919293959697999A9C9D9FA0A23F
:10421000A3A5A7A8AAACAEB0B2B3B5B7B9BCBEC08F
:10422000C2C5C7C9CCCED1D4D7D9DCDFE2E6E9EC30
:10423000F0F3F7FAFE0000004FEA400C0CF1807C2E
:10424000BCF17E4F28BF7047B0F1C04000F08EB87F
:1042500090EA010F0CEAD11348BF42F48072624524
:1042600038BF634507D213F47F0F16D080EA0100F0
:1042700000F00040704710B500F032F8097EFC3EB7
:1042800000F005B880EA010000F00040704780EAC5
:10429000010000F0004000F069B812F47F0F04BF85
:1042A0000248704780EA010000F060B80000C07F5B
:1042B00010F0004148BF4042B0FA80F310FA03F218
:1042C000C3F19D030BD051EAC35101EB12205306F9
:1042D00038BF704700F1010008BF20F001007047AF
:1042E0000EF1020E2EF0030E5EF8044B244204D4AD
:1042F0004FEA4102B2F17F4F11D84FEA4003B3F1C8
:104300007F4F0CD80ED14FEAD07CB2F17F4F0CEB2F
:104310004C0C0CF1020C08BF4CEBD17C04E04FF0CC
:10432000080C01E04FEAD17C0CEB4C0324FA03F4B7
:1043300004F00704B4F1040C06D20EEB840CBDE8C3
:1043400010404CF0010C6047DFE80CF00708020257
:104350004FF00040A0F5800010BD0846420018BF95
:10436000D2F1807288BF00F0004010BDFF2141EA09
:10437000D050C0057047FEF7CBBE303132333435F4
:104380003637383941424344454640305800303191
:1043900032333435363738396162636465664030AC
:1043A0007800000002400000000000A000000000B3
:1043B00005400000000000C8000000000C400000A4
:1043C0000000409C00000000194000000020BCBE1E
:1043D0000000000034400000BFC91B8E0000000434
:1043E000B5400000504BCFD06607E2CF010000007F
:1043F0006C4100003E8251AADFEEA73401000000AC
:10440000D9420000DCB5A0E23A301F97FFFFFFFF62
:10441000B4450000FD25A0C8E9A3C14FFFFFFFFF81
:10442000FF3F00000000008000000000FF3F000090
:10443000000000800000000066696C65000000005C
:1044400073617665000000006F70656E000000000B
:1044500068656C7000000000736176652061730010
:1044600065646974000000006578697400000000EC
:104470007072696E74000000766965770000000054
:10448000B4F2D3A100000000C6D5D6D0BFC6BCBCD4
:10449000B2CBB5A500000000B4F2BFAA0000000036
:1044A000CEC2B6C800000000CAB1D6D300000000DA
:1044B000B1A3B4E600000000C1EDB4E600000000C6
:1044C000CDCBB3F600000000BCC6CBE3C6F70000BE
:1044D0000C45000800000020C0080000280100086A
:1044E000504B0008C008002090070000840100081D
:1044F0001C00000043000000F8FFFFFF0C0000005C
:104500000E0000000F0000002E0000001184A24ADF
:1045100004680901020304060708090C6910E50292
:1045200004060813BCC62A40012AFF05111BCC4211
:10453000055132FF3410207F13CBE310100202F23A
:10454000565253545052525652F304082F1010171B
:1045500015FD150110083D55971010C6F710108075
:104560009E92D2B29E80E09E9292929E808010088F
:1045700008F8949492F201300AF1929294F40808A7
:10458000CEC21AFE1C249292FE158C0260101E40B0
:104590007E42427E02100A427E40017E0404B6C87A
:1045A000280A04242424FC242625FC08311812801F
:1045B00080804C55252525554C84808F3040CAB1CC
:1045C000782BFF1001112DFC8484842311267F8019
:1045D0004006011A3F15123F23D6D33AF02412F0B9
:1045E000272424E72C10201008070202FF020207EC
:1045F000300911217F010101B1A310083E2222E2FE
:1046000022223E2507F86080180C2011090503FFBF
:104610000305091120F41401B4E61E04042464A463
:1046200084180824071CE4840404FE1901167F8200
:1046300042020212FF450102C1ED194559475110CE
:104640000D3F4181410101030D1121418123D3A17E
:104650001BFC040112FC2E4242444444AA1D0708DC
:1046600010083F1708080810101F1BCDCBDF1F7F55
:104670004949C949497515CC424040100F40584539
:1046800042414044485F40201F204033B3F61BFCAA
:1046900040012AFF05427C390F3B407F06127C23F4
:1046A000B2E212FF12F816FE02F202FE258C026040
:1046B00010147F8047100D27100F304780017E04B3
:1046C00004CAD42F10161110FF90014966300DF066
:1046D00040300E0110103F6028103F2BB2CBEE1877
:1046E0000BB42F2424C444444FC444EE301240443D
:1046F0002424150C04FE040C1524244440B5A530D4
:104700000CF8494A4C48F8484C4A49F81D10101317
:1047100012012AFF0516131010BFAA1E8082828282
:10472000FE044906528019D831150F30408043CF1E
:10473000D44BFE920142FE3D40464850CA10097FCC
:104740004058444240CABE2C404042013AC2061979
:10475000AA3530080402147F80402706081020C4C0
:10476000EA1B0444012AFC051CC718200F39012A42
:10477000FF051A07041ACD9C4FFE027282422205E1
:1047800029681D7F804E013E2A0E0512FF1BC1AA1B
:10479000BD171314F01611101A028F13FE02101217
:1047A0008141310D030D31418104FF08081F10C202
:1047B000EB2B8080C413F20217C4445CE484041E13
:1047C0003F40884808011110093F10107F0102CABC
:1047D000FD101008F808088F7080523410FF103454
:1047E00052901E8040330C33E7180A8E52226356D3
:1047F0009A82D7A8CC2A48011C4F78C80619CC3118
:104800004009068A52222212120313D3AA2F3454CB
:1048100014D45F5401365FD41434444CF84B4A012D
:104820001A4BC84BB5EAED2C44FE05DF52FC1808C4
:10483000FE424242434242D8160F3040C6D51F4086
:10484000445464457E253E7E45645444664BFF498E
:104850000132FF23D6D02AFCBA19DA450808FC0831
:104860001B0702012AFF0532072BBFC6332113CCD9
:104870002210089151FE729212102B01011E197321
:10488000191816010204BCBC10090848C8487F4822
:1048900048C8172848FF8808081809206021120C0A
:1048A0000C1320D7177F804101D3D0192E500CE470
:1048B000242424272C34E444840418087FC949297B
:1048C0000909095C350102CFDE1A7ED914CA4AFEF5
:1048D0004E824E3202FE4415032040FF14030402B0
:1048E00014FFB9AB278080C060100E46840E3040A4
:1048F00080100E013078141010312324287020010C
:1049000023CBBE5EFE02021292013210143F402001
:104910001A0F7C1901221F2BB4F2882B04FC052EE0
:104920009010FF10102319892B80404D100C7F82AE
:10493000440407060504030201123027E0100808AA
:1049400010E0170F102020100F42313AF8311620D6
:10495000203F202012321A70EA23087017302122DB
:10496000242830123327304888880830170E112049
:104970002020182A34313320C017243F2424040770
:1049800012351B0808224AF82213211922362C1846
:10499000888866291113110F1237570838C808087C
:1049A00038323F3A38661A8866171C222121221CA9
:1049B0008A39991C11222296D22E133030323A2A8B
:1049C000C076490F2122611A800119B9173F2222AE
:1049D000222419326219104BF80877123F3A6322E9
:1049E0004129BA13110E12643BF888113C203F1084
:1049F000116A6544111A134413221F1A66B94B88B1
:104A0000F02415203F20203A672129101760939445
:104A100094946B4A68551BF8081F2145213F206973
:104A20008B9898336A6A0F211A7F2B12C04A6B87C2
:104A30001999400920302D02243F206C7CF8080889
:104A4000334A6D661C80803F9B19034B206E666B5A
:104A50008080667A6FAA1A1FCC13201F4A70EE1945
:104A60000329EE6DA1FF8071213C80FFA0DD5A7209
:104A700043128012011A20437B2073CC1B1924019E
:104A800012332A74435AE0EE321F2A755029153C1E
:104A9000203F10663A76303944160608300E013A47
:104AA0007754292758090F300C030C300F786619FA
:104AB0004316310E2E31209A79335F18708E818023
:104AC0007ADD2107103021222C30212204133844B2
:104AD0001B08880413DD1F14081C0819F349181A51
:104AE00060141AC804138121AA08301A78141AA075
:104AF00004CBDF20181A50142AA81819489122054F
:104B00001A48141A9804811BBC076419181A401417
:104B10000A11B0181A58140A11B8181A70140A1188
:104B200080181A6814DAC0181263100B303132334F
:104B3000343536373839A016181913011006168087
:104B4000828486888A8C81838587898B8D0000008A
:04000005080000ED02
:00000001FF
